S01500005343414E4E494E475F454355532E737265632F
S11300000C942A000C9434010C945E010C94470067
S11300100C9447000C941D010C9447000C9470023E
S11300200C9447000C9447000C9447000C94060170
S11300300C9447000C94DD000C9447000C9447008A
S11300400C9447000C9447000C9447000C94470010
S11300500C94470011241FBECFE5D8E0DEBFCDBF0E
S113006010E0A0E6B0E0EAE6F7E002C005900D92E9
S1130070A436B107D9F720E0A4E6B0E001C01D9290
S1130080AE3BB207E1F70E94CA010C94B3030C948F
S11300900000CF92DF92EF920F93FC01F8946083FB
S11300A081E0868341832283E4820383C5822130F5
S11300B019F5BC9ABF9ABD9ABE98E62FF0E09081DC
S11300C08E2D880F880F8061242F2370822B892B1B
S11300D08083208130E2C39EC0011124806490E8B3
S11300E0099F600111248C29822B8083818146958C
S11300F04695482B41830FC0BC98BF98BD98BE9AC3
S1130100E62FF0E0908180E8089F90011124822F6F
S11301108064892B8083013009F4789480E00F9106
S1130120EF90DF90CF900895CF92EF920F93FC0160
S1130130E1100CC0F894613011F4559A07C0623094
S113014011F4579A03C08AB1806A8AB9038381E0A3
S11301508583E4826183228340839AB1802F8470F3
S1130160880F880F892B660F660F660F682B6AB994
S1130170440F440F440F8C2D8068C42EC82A80E19C
S1130180289F900111242C290370000F202B20BDDF
S11301908091600089B9809161008F7780BDE11002
S11301A001C0789485E10F91EF90CF9008957093FA
S11301B065006093640085E108951F920F920FB665
S11301C00F9211242F933F934F935F936F937F93D9
S11301D08F939F93AF93BF93EF93FF93E09164004A
S11301E0F0916500309709F00995FF91EF91BF9167
S11301F0AF919F918F917F916F915F914F913F91BB
S11302002F910F900FBE0F901F9018951F920F9271
S11302100FB60F9211248F939F9380916D0090914C
S11302206E00019690936E0080936D009F918F9164
S11302300F900FBE0F901F9018951F920F920FB63C
S11302400F9211248F939F9380916700909168007F
S1130250019690936800809367009F918F910F900F
S11302600FBE0F901F9018951F920F920FB60F920A
S113027011248F939F9380916F00813071F413BE8A
S113028082B790E0909371008093700012BE109238
S11302906F0081E080936C000AC083B7816083BFE4
S11302A081E080936F0010926E0010926D009F9118
S11302B08F910F900FBE0F901F9018951F920F9261
S11302C00FB60F9211248F939F9380916900813010
S11302D079F415BC84B590E090936B0080936A0028
S11302E01DBC1CBC1092690081E0809366000AC0AA
S11302F085B5816085BD81E08093690010926800B6
S1130300109267009F918F910F900FBE0F901F90D6
S113031018958CB1809372000895CF92EF920F9349
S1130320C12CE12C00E020E040E06DE28CE990E09B
S11303300E944900CC24C39403E020E040E062E042
S113034083EA90E00E94940069E871E083EA90E017
S11303500E94D700A09AA19A8A988B988BB7806440
S11303608BBF8BB780688BBF85B7816085BF85B72E
S1130370846085BF89B7806489BF89B7816089BF7C
S11303808FE39CE90197F1F700C000000F91EF9013
S1130390CF9008950E948D01FFCFCF93DF939C01EE
S11303A0FB01DC011196CD91DC911297D383C283BA
S11303B08C819D81958384838C819D81DC0113963E
S11303C07C936E9312977D836C8331872087F90128
S11303D080818F5F8083DF91CF910895CF93DF93E6
S11303E0FC01A085B185C281D381848195819D83DF
S11303F08C83C481D581828193819B838A83119666
S11304008D919C911297E817F90731F484819581B5
S113041012969C938E931197118610868C9181501D
S11304208C93DF91CF9108950F920FB6F8940F92A9
S11304301F9211242F923F924F925F926F927F925C
S11304408F929F92AF92BF92CF92DF92EF92FF92E0
S11304500F931F932F933F934F935F936F937F93C8
S11304608F939F93AF93BF93CF93DF93EF93FF93B8
S1130470A0919200B09193000DB60D920EB60D921C
S11304800E94920281110E944D03A0919200B091AA
S11304909300CD91CDBFDD91DEBFFF91EF91DF9150
S11304A0CF91BF91AF919F918F917F916F915F9108
S11304B04F913F912F911F910F91FF90EF90DF90FB
S11304C0CF90BF90AF909F908F907F906F905F90F0
S11304D04F903F902F901F900F900FBE0F90089554
S11304E00E9414021895E0917E00F0917F008081B3
S11304F0811107C08FEF9FEF909375008093740074
S11305000895E0917E00F0917F000580F681E02D52
S11305100680F781E02D828193819093750080930A
S113052074000895CF92DF92EF92FF920F931F937E
S1130530CF93DF9380917300811199C0E0907A008A
S1130540F0907B008FEFE81AF80AF0927B00E092BB
S11305507A00E114F104B9F480917E0090917F0057
S113056020917C0030917D0030937F0020937E00A9
S113057090937D0080937C00809176008F5F8093C0
S113058076000E9473028091740090917500E816C1
S1130590F90610F4D12C53C0D12CCC24C394E0918F
S11305A07E00F0917F008081811107C08FEF9FEF63
S11305B0909375008093740042C0E0917E00F091A6
S11305C07F000580F681E02DC681D7818A819B81D9
S11305D0E816F90628F490937500809374002FC0F0
S11305E08E010E5F1F4FC8010E94EE018C899D8908
S11305F0892B21F0CE010C960E94EE018E899091F8
S11306007900981710F48093790090E09C01220FF0
S1130610331F220F331F220F331F820F931FB80182
S113062080589F4F0E94CD01E0919200F091930079
S11306309E898689981708F4B2CFDC2CB0CFE0915C
S11306409200F0919300868990E0FC01EE0FFF1F69
S1130650EE0FFF1FEE0FFF1F8E0F9F1FFC01E058D0
S1130660FF4F8081823048F0DD24D39406C080910E
S113067078008F5F80937800D12C80917700882355
S113068011F0DD24D3948D2DDF91CF911F910F9123
S1130690FF90EF90DF90CF900895809173008823AE
S11306A021F081E0809377000895109277002091E3
S11306B07900822F90E0FC01EE0FFF1FEE0FFF1F69
S11306C0EE0FFF1FE80FF91FE058FF4F3081311183
S11306D011C02150822F90E0FC01EE0FFF1FEE0F9E
S11306E0FF1FEE0FFF1FE80FF91FE058FF4F308187
S11306F0332379F3AC01440F551F440F551F440FA6
S1130700551F480F591FDA01A058BF4F1196ED919C
S1130710FC9112970280F381E02D1296FC93EE93E4
S113072011974D575F4FE417F50729F44281538120
S1130730FD0152834183FC01EE0FFF1FEE0FFF1FEB
S1130740EE0FFF1F8E0F9F1FFC01E058FF4F01802B
S1130750F281E02D8681978190939300809392009B
S10D0760209379000895F894FFCF68
S107076A3300000054
S9030000FC
