S01500005343414E4E494E475F454355532E737265632F
S11300000C942A000C9488020C94B2020C944700BD
S11300100C9447000C9471020C9447000C946004F7
S11300200C9447000C9447000C9447000C945A021B
S11300300C94D8000C9459010C9447000C9447007C
S11300400C9447000C9447000C9447000C94470010
S11300500C94470011241FBECFE5D8E0DEBFCDBF0E
S113006010E0A0E6B0E0E6E1FCE002C005900D92ED
S1130070AC38B107D9F720E0ACE8B0E001C01D927C
S1130080AE3EB207E1F70E9432030C9409060C94C9
S11300900000CF92DF92EF920F93FC01F8946083FB
S11300A081E0868341832283E4820383C5822130F5
S11300B019F5BC9ABF9ABD9ABE98E62FF0E09081DC
S11300C08E2D880F880F8061242F2370822B892B1B
S11300D08083208130E2C39EC0011124806490E8B3
S11300E0099F600111248C29822B8083818146958C
S11300F04695482B41830FC0BC98BF98BD98BE9AC3
S1130100E62FF0E0908180E8089F90011124822F6F
S11301108064892B8083013009F4789480E00F9106
S1130120EF90DF90CF900895CF93DF9300D0CDB7B9
S1130130DEB7DC0182E08A95F1F700C0EC912E2F46
S113014030E0FB018081F9018283D09A1A821982FE
S113015018C0D99AFAE1FA95F1F700C0D9988AE162
S11301608A95F1F700C029813A812F5F3F4F3A8386
S1130170298329813A81203D374018F01A82198257
S113018005C0EC91F0E0918199231CF7D098EC9193
S1130190F0E08281FA01808380E00F900F90DF917C
S11301A0CF91089570938D0060938C0080E0089542
S11301B01F920F920FB60F9211242F933F934F93D8
S11301C05F936F937F938F939F93AF93BF93EF93BB
S11301D0FF93E0918C00F0918D00309709F0099520
S11301E0FF91EF91BF91AF919F918F917F916F910B
S11301F05F914F913F912F910F900FBE0F901F90E1
S11302001895CF92EF920F93FC01E1100AC0F89475
S1130210613011F4559A05C0623011F4579A01C047
S1130220579A038381E08583E48261832283408338
S11302309AB1802F8470880F880F892B660F660F00
S1130240660F682B6AB9440F440F440F8C2D8068E5
S1130250C42EC82A80E1289F900111242C29037000
S1130260000F202B20BD8091600089B9809161002E
S11302708F7780BDE11001C0789485E10F91EF90F4
S1130280CF900895FB018081882359F090E05D9B15
S1130290FECF8CB99F5FFB01E90FF11D80818111B5
S11302A0F6CF85E1089570938F0060938E0085E109
S11302B008951F920F920FB60F9211242F933F931C
S11302C04F935F936F937F938F939F93AF93BF935A
S11302D0EF93FF93E0918E00F0918F00309709F037
S11302E00995FF91EF91BF91AF919F918F917F916C
S11302F06F915F914F913F912F910F900FBE0F908F
S11303001F90189510929A00A89825E02A95F1F765
S11303100000A89A88E28A95F1F7A89880919A003B
S113032081111FC08091980090919900853F914060
S1130330C0F085E08A95F1F70000809198009091D3
S113034099000196909399008093980080919A0067
S1130350811107C08091980090919900853F914048
S113036040F7109299001092980010929A0085E834
S11303708A95F1F700004091AE005091AF002091B2
S1130380AB003091AC00ACEDB5E00E94C505640F44
S1130390751F811D911D2AE330E040E050E00E946A
S11303A0A305CA01B9010895DC01CB014AE06BE958
S11303B070E00E94D40564E670E083EE90E00E9451
S11303C042016BE970E083EE90E00E94420164E731
S11303D070E083EE90E00E94420108951092920032
S11303E0A99825E02A95F1F70000A99A88E28A9550
S11303F0F1F7A9988091920081111FC0809190001B
S113040090919100853F9140C0F085E08A95F1F785
S1130410000080919000909191000196909391003A
S11304208093900080919200811107C08091900088
S113043090919100853F914040F710929100109265
S11304409000109292008AE18A95F1F700C04091E1
S11304509600509197002091930030919400ACED58
S1130460B5E00E94C505640F751F811D911D2AE327
S113047030E040E050E00E94A305CA01B9010895AC
S1130480DC01CB014AE06BE970E00E94D4056BE724
S113049070E083EE90E00E9442016BE970E083EE2D
S11304A090E00E94420164E770E083EE90E00E94D5
S11304B0420108951F920F920FB60F9211248F9349
S11304C09F938091AB009091AC0001969093AC0007
S11304D08093AB009F918F910F900FBE0F901F9050
S11304E018951F920F920FB60F9211248F939F931A
S11304F0809193009091940001969093940080933E
S113050093009F918F910F900FBE0F901F9018959D
S11305101F920F920FB60F9211248F939F93809185
S1130520AD00813071F413BE82B790E09093AF00B8
S11305308093AE0012BE1092AD0081E080939A00C9
S11305400AC083B7816083BF81E08093AD001092BD
S1130550AC001092AB009F918F910F900FBE0F9043
S11305601F9018951F920F920FB60F9211248F931C
S11305709F9380919500813079F415BC84B590E007
S113058090939700809396001DBC1CBC109295001C
S113059081E0809392000AC085B5816085BD81E0C9
S11305A08093950010929400109293009F918F91E4
S11305B00F900FBE0F901F9018958CB18093BA00C6
S11305C008958FB18093B0000895CF92EF920F9366
S11305D08FEF8ABB84BBD89AC12CE12C01E020E0C8
S11305E040E06DE28CED90E00E94490061EE72E023
S11305F08CED90E00E94D200CC24C394EE24E394CA
S113060003E020E040E063E083EE90E00E9401011B
S11306106DED72E083EE90E00E945301A09AA19ADE
S11306208A988B988BB780648BBF8BB780688BBF9D
S113063085B7816085BF85B7846085BF89B78064CD
S113064089BF89B7816089BF2FE788E391E0215092
S113065080409040E1F700C0000078940F91EF9043
S1130660CF9008950E94E502C3E5D2E50E9482017D
S11306706093B6007093B7008093B8009093B9006C
S11306800E94EE016093B2007093B3008093B400B3
S11306909093B5006091B6007091B7008091B80056
S11306A09091B9000E94D4016091B2007091B3009E
S11306B08091B4009091B5000E9440028091B600F0
S11306C09091B700A091B800B091B9008F3E9240CC
S11306D0A105B10560F48091B6009091B700A09196
S11306E0B800B091B900892B8A2B8B2BC9F4809167
S11306F0B2009091B300A091B400B091B5008F3EC8
S11307009240A105B10590F58091B2009091B3009B
S1130710A091B400B091B500892B8A2B8B2B31F1B9
S11307208091B6009091B700A091B800B091B90043
S11307308F3E9240A105B10578F48091B600909166
S1130740B700A091B800B091B900892B8A2B8B2BEC
S113075019F0D093B10002C0C093B10040EB50E057
S113076061EB70E08CED90E00E9494008FE99FE0D3
S11307700197F1F700C0000079CFCF93DF939C017C
S1130780FB01DC011196CD91DC911297D383C283D6
S11307908C819D81958384838C819D81DC0113965A
S11307A07C936E9312977D836C8331872087F90144
S11307B080818F5F8083DF91CF910895CF93DF9302
S11307C0FC01A085B185C281D381848195819D83FB
S11307D08C83C481D581828193819B838A83119682
S11307E08D919C911297E817F90731F484819581D2
S11307F012969C938E931197118610868C9181503A
S11308008C93DF91CF9108950F920FB6F8940F92C5
S11308101F9211242F923F924F925F926F927F9278
S11308208F929F92AF92BF92CF92DF92EF92FF92FC
S11308300F931F932F933F934F935F936F937F93E4
S11308408F939F93AF93BF93CF93DF93EF93FF93D4
S1130850A091DA00B091DB000DB60D920EB60D92A8
S11308600E94820481110E943D05A091DA00B0919A
S1130870DB00CD91CDBFDD91DEBFFF91EF91DF9124
S1130880CF91BF91AF919F918F917F916F915F9124
S11308904F913F912F911F910F91FF90EF90DF9017
S11308A0CF90BF90AF909F908F907F906F905F900C
S11308B04F903F902F901F900F900FBE0F90089570
S11308C00E9404041895E091C600F091C70080814D
S11308D0811107C08FEF9FEF9093BD008093BC0000
S11308E00895E091C600F091C7000580F681E02DDF
S11308F00680F781E02D828193819093BD008093DF
S1130900BC000895CF92DF92EF92FF920F931F9352
S1130910CF93DF938091BB00811199C0E090C20016
S1130920F090C3008FEFE81AF80AF092C300E09247
S1130930C200E114F104B9F48091C6009091C7009B
S11309402091C4003091C5003093C7002093C600A5
S11309509093C5008093C4008091BE008F5F809304
S1130960BE000E9463048091BC009091BD00E81613
S1130970F90610F4D12C53C0D12CCC24C394E091AB
S1130980C600F091C7008081811107C08FEF9FEFEF
S11309909093BD008093BC0042C0E091C600F091EA
S11309A0C7000580F681E02DC681D7818A819B81AD
S11309B0E816F90628F49093BD008093BC002FC07C
S11309C08E010E5F1F4FC8010E94DE038C899D8932
S11309D0892B21F0CE010C960E94DE038E89909122
S11309E0C100981710F48093C10090E09C01220F7D
S11309F0331F220F331F220F331F820F931FB8019F
S1130A0088539F4F0E94BD03E091DA00F091DB0010
S1130A109E898689981708F4B2CFDC2CB0CFE09178
S1130A20DA00F091DB00868990E0FC01EE0FFF1FF5
S1130A30EE0FFF1FEE0FFF1F8E0F9F1FFC01E853E9
S1130A40FF4F8081823048F0DD24D39406C080912A
S1130A50C0008F5F8093C000D12C8091BF00882399
S1130A6011F0DD24D3948D2DDF91CF911F910F913F
S1130A70FF90EF90DF90CF9008958091BB00882382
S1130A8021F081E08093BF0008951092BF0020916F
S1130A90C100822F90E0FC01EE0FFF1FEE0FFF1F3D
S1130AA0EE0FFF1FE80FF91FE853FF4F308131119C
S1130AB011C02150822F90E0FC01EE0FFF1FEE0FBA
S1130AC0FF1FEE0FFF1FE80FF91FE853FF4F3081A0
S1130AD0332379F3AC01440F551F440F551F440FC2
S1130AE0551F480F591FDA01A853BF4F1196ED91B6
S1130AF0FC9112970280F381E02D1296FC93EE9301
S1130B00119745535F4FE417F50729F44281538148
S1130B10FD0152834183FC01EE0FFF1FEE0FFF1F07
S1130B20EE0FFF1F8E0F9F1FFC01E853FF4F018044
S1130B30F281E02D868197819093DB008093DA0027
S1130B402093C1000895A1E21A2EAA1BBB1BFD012C
S1130B500DC0AA1FBB1FEE1FFF1FA217B307E40798
S1130B60F50720F0A21BB30BE40BF50B661F771FF0
S1130B70881F991F1A9469F76095709580959095D0
S1130B809B01AC01BD01CF010895A29FB001B39FA9
S1130B90C001A39F700D811D1124911DB29F700D82
S1130BA0811D1124911D0895BB274A3031F49923E6
S1130BB022F4BDE2909581959F4F0C94E005BB27EC
S1130BC0FB015527AA27880F991FAA1FA41710F005
S1130BD0A41B83955051B9F7A05DAA3308F0A95D11
S1130BE0A193009779F7B111B1931192CB010C94B1
S1130BF0F905DC01FC01672F71917723E1F7329746
S1130C0004C07C916D9370836291AE17BF07C8F3E3
S1090C100895F894FFCFE3
S1130C163300000075736F6E69633020646174611C
S1130C26203D200020206D6D20200075736F6E69B5
S10F0C3663312064617461203D200000E3
S9030000FC
