S01500005343414E4E494E475F454355532E737265632F
S11300000C942A000C94D5010C94FF010C94470025
S11300100C9447000C94BE010C9447000C94B1035B
S11300200C9447000C9447000C9447000C94A701CF
S11300300C9447000C94EC000C9447000C9447007B
S11300400C9447000C9447000C9447000C94470010
S11300500C94470011241FBECFE5D8E0DEBFCDBF0E
S113006010E0A0E6B0E0E8EBFAE002C005900D92E3
S1130070AC38B107D9F720E0ACE8B0E001C01D927C
S1130080A63FB207E1F70E946C020C945A050C9447
S11300900000CF92DF92EF920F93FC01F8946083FB
S11300A081E0868341832283E4820383C5822130F5
S11300B019F5BC9ABF9ABD9ABE98E62FF0E09081DC
S11300C08E2D880F880F8061242F2370822B892B1B
S11300D08083208130E2C39EC0011124806490E8B3
S11300E0099F600111248C29822B8083818146958C
S11300F04695482B41830FC0BC98BF98BD98BE9AC3
S1130100E62FF0E0908180E8089F90011124822F6F
S11301108064892B8083013009F4789480E00F9106
S1130120EF90DF90CF900895CF92EF920F93FC0160
S1130130E1100AC0F894613011F4559A05C0623098
S113014011F4579A01C0579A038381E08583E482AE
S11301506183228340839AB1802F8470880F880F33
S1130160892B660F660F660F682B6AB9440F440F1C
S1130170440F8C2D8068C42EC82A80E1289F9001EA
S113018011242C290370000F202B20BD80916000C6
S113019089B9809161008F7780BDE11001C07894A6
S11301A085E10F91EF90CF900895FB018081882322
S11301B059F090E05D9BFECF8CB99F5FFB01E90F86
S11301C0F11D80818111F6CF85E1089570938D0032
S11301D060938C0085E108951F920F920FB60F92E1
S11301E011242F933F934F935F936F937F938F9338
S11301F09F93AF93BF93EF93FF93E0918C00F091A3
S11302008D00309709F00995FF91EF91BF91AF915F
S11302109F918F917F916F915F914F913F912F911A
S11302200F900FBE0F901F90189510929400A898ED
S113023085E08A95F1F70000A89A88E28A95F1F79B
S1130240A898809194008823E1F31092940085E8A3
S11302508A95F1F700004091A8005091A9002091DF
S1130260A5003091A600ACEDB5E00E941605640F20
S1130270751F811D911D2AE330E040E050E00E948B
S1130280F404CA01B9010895DC01CB014AE065E92F
S113029070E00E94250564E670E08BED90E00E941A
S11302A0D50065E970E08BED90E00E94D50064E72D
S11302B070E08BED90E00E94D500089510928E00BE
S11302C0A99885E08A95F1F70000A99A88E28A95B1
S11302D0F1F7A99880918E008823E1F310928E00A3
S11302E085E88A95F1F700004091920050919300BF
S11302F020918F0030919000ACEDB5E00E9416057E
S1130300640F751F811D911D2AE330E040E050E029
S11303100E94F404CA01B9010895DC01CB014AE04A
S113032065E970E00E9425056BE770E08BED90E0D5
S11303300E94D50065E970E08BED90E00E94D50045
S113034064E770E08BED90E00E94D50008951F9261
S11303500F920FB60F9211248F939F938091A50053
S11303609091A60001969093A6008093A5009F917A
S11303708F910F900FBE0F901F9018951F920F92A0
S11303800FB60F9211248F939F9380918F009091B9
S1130390900001969093900080938F009F918F918D
S11303A00F900FBE0F901F9018951F920F920FB6CB
S11303B00F9211248F939F938091A700813071F441
S11303C013BE82B790E09093A9008093A80012BE58
S11303D01092A70081E0809394000AC083B78160E3
S11303E083BF81E08093A7001092A6001092A5001D
S11303F09F918F910F900FBE0F901F9018951F9291
S11304000F920FB60F9211248F939F9380919100B6
S1130410813079F415BC84B590E090939300809377
S113042092001DBC1CBC1092910081E080938E0050
S11304300AC085B5816085BD81E0809391001092EA
S1130440900010928F009F918F910F900FBE0F908C
S11304501F9018958CB18093AA000895CF92EF92C3
S11304600F93C12CE12C00E020E040E06DE284ED2C
S113047090E00E944900CC24C39403E020E040E0D3
S113048063E08BED90E00E9494006AE272E08BEDF1
S113049090E00E94E600A09AA19A8A988B988BB764
S11304A080648BBF8BB780688BBF85B7816085BF45
S11304B085B7846085BF89B7806489BF89B7816047
S11304C089BF78948FE39CE90197F1F700C000009D
S11304D00F91EF90CF9008950E941501092E000C02
S11304E0AA0BBB0B8093D0009093D100A093D200B1
S11304F0B093D3006091D0007091D1008091D2006C
S11305009091D3000E9444010E945E01092E000CC8
S1130510AA0BBB0B8093CC009093CD00A093CE008C
S1130520B093CF006091CC007091CD008091CE004B
S11305309091CF000E948D010E942E02CFEF8091F6
S1130540CC009091CD00A091CE00B091CF00833C1F
S11305509140A105B10560F48091CC009091CD004B
S1130560A091CE00B091CF00892B8A2B8B2BC9F49C
S11305708091D0009091D100A091D200B091D3008D
S1130580833C9140A105B105F0F58091D000909194
S1130590D100A091D200B091D300892B8A2B8B2B50
S11305A091F10E941501092E000CAA0BBB0B80933C
S11305B0D0009093D100A093D200B093D3000E94B6
S11305C05E01092E000CAA0BBB0B8093CC00909308
S11305D0CD00A093CE00B093CF006091D000709175
S11305E0D1008091D2009091D3000E944401609187
S11305F0CC007091CD008091CE009091CF000E94EC
S11306008D01CBBB01C01BBA8FEF99E628E1815065
S113061090402040E1F700C0000091CFCF93DF93DA
S11306209C01FB01DC011196CD91DC911297D383DF
S1130630C2838C819D81958384838C819D81DC011F
S113064013967C936E9312977D836C8331872087F6
S1130650F90180818F5F8083DF91CF910895CF93DB
S1130660DF93FC01A085B185C281D381848195810A
S11306709D838C83C481D581828193819B838A836A
S113068011968D919C911297E817F90731F48481A2
S1130690958112969C938E931197118610868C9156
S11306A081508C93DF91CF9108950F920FB6F894F7
S11306B00F921F9211242F923F924F925F926F924A
S11306C07F928F929F92AF92BF92CF92DF92EF92DE
S11306D0FF920F931F932F933F934F935F936F93C7
S11306E07F938F939F93AF93BF93CF93DF93EF93B6
S11306F0FF93A091CA00B091CB000DB60D920EB637
S11307000D920E94D30381110E948E04A091CA000D
S1130710B091CB00CD91CDBFDD91DEBFFF91EF91C4
S1130720DF91CF91BF91AF919F918F917F916F9105
S11307305F914F913F912F911F910F91FF90EF90F7
S1130740DF90CF90BF90AF909F908F907F906F90ED
S11307505F904F903F902F901F900F900FBE0F907F
S113076008950E9455031895E091B600F091B700E2
S11307708081811107C08FEF9FEF9093AD0080932C
S1130780AC000895E091B600F091B7000580F681C1
S1130790E02D0680F781E02D828193819093AD0056
S11307A08093AC000895CF92DF92EF92FF920F9363
S11307B01F93CF93DF938091AB00811199C0E09098
S11307C0B200F090B3008FEFE81AF80AF092B30089
S11307D0E092B200E114F104B9F48091B600909172
S11307E0B7002091B4003091B5003093B700209346
S11307F0B6009093B5008093B4008091AE008F5FF3
S11308008093AE000E94B4038091AC009091AD003F
S1130810E816F90610F4D12C53C0D12CCC24C3947F
S1130820E091B600F091B7008081811107C08FEF8D
S11308309FEF9093AD008093AC0042C0E091B6006E
S1130840F091B7000580F681E02DC681D7818A81B9
S11308509B81E816F90628F49093AD008093AC00D0
S11308602FC08E010E5F1F4FC8010E942F038C8979
S11308709D89892B21F0CE010C960E942F038E892D
S11308809091B100981710F48093B10090E09C010E
S1130890220F331F220F331F220F331F820F931F88
S11308A0B80188549F4F0E940E03E091CA00F09152
S11308B0CB009E898689981708F4B2CFDC2CB0CF80
S11308C0E091CA00F091CB00868990E0FC01EE0F24
S11308D0FF1FEE0FFF1FEE0FFF1F8E0F9F1FFC0168
S11308E0E854FF4F8081823048F0DD24D39406C061
S11308F08091B0008F5F8093B000D12C8091AF00C5
S1130900882311F0DD24D3948D2DDF91CF911F9195
S11309100F91FF90EF90DF90CF9008958091AB00FE
S1130920882321F081E08093AF0008951092AF00F6
S11309302091B100822F90E0FC01EE0FFF1FEE0F1B
S1130940FF1FEE0FFF1FE80FF91FE854FF4F308120
S1130950311111C02150822F90E0FC01EE0FFF1FD6
S1130960EE0FFF1FEE0FFF1FE80FF91FE854FF4FB4
S11309703081332379F3AC01440F551F440F551FC5
S1130980440F551F480F591FDA01A854BF4F119641
S1130990ED91FC9112970280F381E02D1296FC9365
S11309A0EE93119745545F4FE417F50729F44281FC
S11309B05381FD0152834183FC01EE0FFF1FEE0FB3
S11309C0FF1FEE0FFF1F8E0F9F1FFC01E854FF4F08
S11309D00180F281E02D868197819093CB008093F2
S11309E0CA002093B1000895A1E21A2EAA1BBB1BD2
S11309F0FD010DC0AA1FBB1FEE1FFF1FA217B307E7
S1130A00E407F50720F0A21BB30BE40BF50B661FFC
S1130A10771F881F991F1A9469F7609570958095C0
S1130A2090959B01AC01BD01CF010895A29FB00137
S1130A30B39FC001A39F700D811D1124911DB29F0E
S1130A40700D811D1124911D0895BB274A3031F486
S1130A50992322F4BDE2909581959F4F0C94310522
S1130A60BB27FB015527AA27880F991FAA1FA41784
S1130A7010F0A41B83955051B9F7A05DAA3308F078
S1130A80A95DA193009779F7B111B1931192CB01AC
S1130A900C944A05DC01FC01672F71917723E1F77F
S1130AA0329704C07C916D9370836291AE17BF0737
S10B0AB0C8F30895F894FFCF88
S1130AB83300000075736F6E69633020646174617C
S1130AC8203D200020206D6D20200075736F6E6915
S10F0AD863312064617461203D20000043
S9030000FC
