S01500005343414E4E494E475F454355532E737265632F
S11300000C942A000C940B020C9435020C944700B7
S11300100C9447000C94F4010C9447000C940E04C7
S11300200C9447000C9447000C9447000C94DD0199
S11300300C949A000C9422010C9447000C944700F1
S11300400C9447000C9447000C9447000C94470010
S11300500C94470011241FBECFE5D8E0DEBFCDBF0E
S113006010E0A0E6B0E0E2E7FBE002C005900D92EC
S1130070AE38B107D9F720E0AEE8B0E001C01D9278
S1130080AC3EB207E1F70E94BC020C94B7050C9495
S11300900000CF92DF92EF920F93FC01F8946083FB
S11300A081E0868341832283E4820383C5822130F5
S11300B019F5BC9ABF9ABD9ABE98E62FF0E09081DC
S11300C08E2D880F880F8061242F2370822B892B1B
S11300D08083208130E2C39EC0011124806490E8B3
S11300E0099F600111248C29822B8083818146958C
S11300F04695482B41830FC0BC98BF98BD98BE9AC3
S1130100E62FF0E0908180E8089F90011124822F6F
S11301108064892B8083013009F4789480E00F9106
S1130120EF90DF90CF90089570938F0060938E00CE
S113013080E008951F920F920FB60F9211242F930F
S11301403F934F935F936F937F938F939F93AF935B
S1130150BF93EF93FF93E0918E00F0918F0030975F
S113016009F00995FF91EF91BF91AF919F918F9104
S11301707F916F915F914F913F912F910F900FBE9F
S11301800F901F901895CF92EF920F93FC01E110FE
S11301900AC0F894613011F4559A05C0623011F424
S11301A0579A01C0579A038381E08583E48261836F
S11301B0228340839AB1802F8470880F880F892B03
S11301C0660F660F660F682B6AB9440F440F440F1D
S11301D08C2D8068C42EC82A80E1289F90011124A8
S11301E02C290370000F202B20BD8091600089B959
S11301F0809161008F7780BDE11001C0789485E122
S11302000F91EF90CF9008955D9BFECFFB0180810D
S11302108CB985E10895FB018081882359F090E031
S11302205D9BFECF8CB99F5FFB01E90FF11D8081BF
S11302308111F6CF85E10895709391006093900049
S113024085E108951F920F920FB60F9211242F93F8
S11302503F934F935F936F937F938F939F93AF934A
S1130260BF93EF93FF93E0919000F091910030974A
S113027009F00995FF91EF91BF91AF919F918F91F3
S11302807F916F915F914F913F912F910F900FBE8E
S11302900F901F90189510929800A89885E08A9561
S11302A0F1F70000A89A88E28A95F1F7A89880915E
S11302B098008823E1F31092980085E88A95F1F775
S11302C000004091AC005091AD002091A900309104
S11302D0AA00ACEDB5E00E947305640F751F811D83
S11302E0911D2AE330E040E050E00E945105CA012C
S11302F0B9010895DC01CB014AE069E970E00E948C
S1130300820566E670E081EE90E00E940B0169E9E7
S113031070E081EE90E00E940B0166E770E081EEF0
S113032090E00E940B01089510929200A99885E034
S11303308A95F1F70000A99A88E28A95F1F7A998BD
S1130340809192008823E1F31092920085E88A95C7
S1130350F1F700004091960050919700209193008E
S113036030919400ACEDB5E00E947305640F751FE5
S1130370811D911D2AE330E040E050E00E945105C8
S1130380CA01B9010895DC01CB014AE069E970E0D2
S11303900E9482056DE770E081EE90E00E940B01FF
S11303A069E970E081EE90E00E940B0166E770E07D
S11303B081EE90E00E940B0108951F920F920FB6F8
S11303C00F9211248F939F938091A9009091AA007A
S11303D001969093AA008093A9009F918F910F900A
S11303E00FBE0F901F9018951F920F920FB60F9289
S11303F011248F939F938091930090919400019680
S113040090939400809393009F918F910F900FBECF
S11304100F901F9018951F920F920FB60F921124F0
S11304208F939F938091AB00813071F413BE82B798
S113043090E09093AD008093AC0012BE1092AB009C
S113044081E0809398000AC083B7816083BF81E014
S11304508093AB001092AA001092A9009F918F91F3
S11304600F900FBE0F901F9018951F920F920FB60A
S11304700F9211248F939F9380919500813079F48A
S113048015BC84B590E090939700809396001DBCB2
S11304901CBC1092950081E0809392000AC085B53F
S11304A0816085BD81E08093950010929400109244
S11304B093009F918F910F900FBE0F901F901895EE
S11304C08CB18093B800089581E0809364008FB16B
S11304D08BBB8FB18093B6008091B7008FB908951C
S11304E0CF92EF920F938FEF8ABB84BBC12CE12C88
S11304F001E020E040E06DE28AED90E00E944900D6
S113050064E672E08AED90E00E949400CC24C394E7
S1130510EE24E39403E020E040E063E081EE90E029
S11305200E94C30060E672E081EE90E00E941C012C
S1130530A09AA19A8A988B988BB780648BBF8BB74B
S113054080688BBF85B7816085BF85B7846085BFB0
S113055089B7806489BF89B7816089BF2FE788E341
S113056091E0215080409040E1F700C00000789471
S11305700F91EF90CF9008950E9470020E944B015A
S11305806093B2007093B3008093B4009093B5006D
S11305900E9494016093AE007093AF008093B0000A
S11305A09093B1006091B2007091B3008091B40057
S11305B09091B5000E947A016091AE007091AF00F5
S11305C08091B0009091B1000E94C3011092640028
S11305D08091B2009091B300A091B400B091B500A5
S11305E0833C9140A105B10560F48091B2009091E3
S11305F0B300A091B400B091B500892B8A2B8B2B4A
S1130600C9F48091AE009091AF00A091B000B09178
S1130610B100833C9140A105B105C0F58091AE00C5
S11306209091AF00A091B000B091B100892B8A2BBA
S11306308B2B61F10E944B016093B2007093B30065
S11306408093B4009093B5000E9494016093AE002F
S11306507093AF008093B0009093B1006091B200AA
S11306607091B3008091B4009091B5000E947A011A
S11306706091AE007091AF008091B0009091B10094
S11306800E94C3018BB38F5F8BBB03C08BB38F5F9F
S11306908BBB65E670E081EE90E00E9404018091DE
S11306A06400813081F085B3809585BB8FE79AE142
S11306B026E0815090402040E1F700C00000809186
S11306C06400813081F715BA8091B60085BB8091B2
S11306D0B7008BBB53CFCF93DF939C01FB01DC01AD
S11306E01196CD91DC911297D383C2838C819D8125
S11306F0958384838C819D81DC0113967C936E9316
S113070012977D836C8331872087F90180818F5F05
S11307108083DF91CF910895CF93DF93FC01A0856F
S1130720B185C281D381848195819D838C83C48169
S1130730D581828193819B838A8311968D919C912B
S11307401297E817F90731F48481958112969C93E6
S11307508E931197118610868C9181508C93DF9122
S1130760CF9108950F920FB6F8940F921F9211240F
S11307702F923F924F925F926F927F928F929F92AD
S1130780AF92BF92CF92DF92EF92FF920F931F939B
S11307902F933F934F935F936F937F938F939F9385
S11307A0AF93BF93CF93DF93EF93FF93A091D800C0
S11307B0B091D9000DB60D920EB60D920E94300480
S11307C081110E94EB04A091D800B091D900CD9181
S11307D0CDBFDD91DEBFFF91EF91DF91CF91BF914E
S11307E0AF919F918F917F916F915F914F913F91C5
S11307F02F911F910F91FF90EF90DF90CF90BF90BA
S1130800AF909F908F907F906F905F904F903F90AC
S11308102F901F900F900FBE0F9008950E94B20367
S11308201895E091C400F091C5008081811107C042
S11308308FEF9FEF9093BB008093BA000895E091EF
S1130840C400F091C5000580F681E02D0680F78193
S1130850E02D828193819093BB008093BA00089528
S1130860CF92DF92EF92FF920F931F93CF93DF9378
S11308708091B900811199C0E090C000F090C1004E
S11308808FEFE81AF80AF092C100E092C000E11478
S1130890F104B9F48091C4009091C5002091C20084
S11308A03091C3003093C5002093C4009093C300DB
S11308B08093C2008091BC008F5F8093BC000E9433
S11308C011048091BA009091BB00E816F90610F467
S11308D0D12C53C0D12CCC24C394E091C400F0910A
S11308E0C5008081811107C08FEF9FEF9093BB00FB
S11308F08093BA0042C0E091C400F091C500058025
S1130900F681E02DC681D7818A819B81E816F9069C
S113091028F49093BB008093BA002FC08E010E5F21
S11309201F4FC8010E948C038C899D89892B21F05B
S1130930CE010C960E948C038E899091BF0098176B
S113094010F48093BF0090E09C01220F331F220F0C
S1130950331F220F331F820F931FB8018A539F4FF7
S11309600E946B03E091D800F091D9009E8986899A
S1130970981708F4B2CFDC2CB0CFE091D800F091F6
S1130980D900868990E0FC01EE0FFF1FEE0FFF1FD8
S1130990EE0FFF1F8E0F9F1FFC01EA53FF4F808154
S11309A0823048F0DD24D39406C08091BE008F5F6E
S11309B08093BE00D12C8091BD00882311F0DD24EA
S11309C0D3948D2DDF91CF911F910F91FF90EF90D4
S11309D0DF90CF9008958091B900882321F081E0C1
S11309E08093BD0008951092BD002091BF00822F16
S11309F090E0FC01EE0FFF1FEE0FFF1FEE0FFF1F35
S1130A00E80FF91FEA53FF4F3081311111C0215013
S1130A10822F90E0FC01EE0FFF1FEE0FFF1FEE0F81
S1130A20FF1FE80FF91FEA53FF4F3081332379F397
S1130A30AC01440F551F440F551F440F551F480F59
S1130A40591FDA01AA53BF4F1196ED91FC911297E9
S1130A500280F381E02D1296FC93EE931197475395
S1130A605F4FE417F50729F442815381FD01528356
S1130A704183FC01EE0FFF1FEE0FFF1FEE0FFF1F60
S1130A808E0F9F1FFC01EA53FF4F0180F281E02D7E
S1130A90868197819093D9008093D8002093BF00DA
S1130AA00895A1E21A2EAA1BBB1BFD010DC0AA1FAB
S1130AB0BB1FEE1FFF1FA217B307E407F50720F0C3
S1130AC0A21BB30BE40BF50B661F771F881F991F3E
S1130AD01A9469F760957095809590959B01AC0187
S1130AE0BD01CF010895A29FB001B39FC001A39F90
S1130AF0700D811D1124911DB29F700D811D112453
S1130B00911D0895BB274A3031F4992322F4BDE2A4
S1130B10909581959F4F0C948E05BB27FB0155271B
S1130B20AA27880F991FAA1FA41710F0A41B839546
S1130B305051B9F7A05DAA3308F0A95DA1930097BD
S1130B4079F7B111B1931192CB010C94A705DC0193
S1130B50FC01672F71917723E1F7329704C07C91F0
S1130B606D9370836291AE17BF07C8F30895F8942C
S1050B70FFCFB1
S1130B7233000000010D75736F6E69633020646188
S1130B827461203D200020206D6D20200075736F5C
S1110B926E6963312064617461203D200000AF
S9030000FC
