S0110000534552564F5F4543552E7372656348
S11300000C942A000C9447000C9447000C9447006D
S11300100C9447000C9447000C9447000C94BA03CA
S11300200C9447000C9447000C9447000C94470030
S11300300C9447000C9430020C9447000C94470035
S11300400C9447000C9447000C9447000C94470010
S11300500C94470011241FBECFE5D8E0DEBFCDBF0E
S113006010E0A0E6B0E0E4E8FDE002C005900D92E7
S1130070A836B107D9F720E0A8E6B0E001C01D9288
S1130080AA3BB207E1F70E94B9020C94C0060C9493
S113009000004F925F926F927F929F92AF92BF92B5
S11300A0CF92DF92EF92FF920F931F93CF93DF9340
S11300B0EC01D62E942EC801B701D882CF82EB82F0
S11300C0FC820D831E8349832A8331E039872330E0
S11300D051F50E94740520E030E040E853E40E94AA
S11300E02B069B01AC0160E074E284EF9AE40E9469
S11300F002052B013C0122E092120AC09C2D80E0F3
S113010064E670E00E9498068B010150110936C024
S11301109C2D80E064E670E00E9498060FEF10E0EA
S1130120061B170B2BC00E94740520E030E04FEF34
S113013053E40E942B069B01AC0160E074E284EF5F
S11301409AE40E9402052B013C0152E095120AC078
S11301502FEFC29EC001112464E670E00E9498064D
S11301608B010CC05FEFC59EC001112464E670E0F2
S11301700E9498060FEF10E0061B170B20E030E0FA
S113018040E85FE3C301B2010E94FD04882324F424
S113019081E0888780E063C020E030E040E85FE3EE
S11301A0C301B2010E942606181674F420E030E060
S11301B040E051E4C301B2010E94FD04882324F409
S11301C082E0888780E04BC020E030E040E051E4EA
S11301D0C301B2010E942606181674F420E030E030
S11301E040E852E4C301B2010E94FD04882324F4D0
S11301F083E0888780E033C020E030E040E852E4C8
S1130200C301B2010E942606181674F420E030E0FF
S113021040E853E4C301B2010E94FD04882324F49E
S113022084E0888780E01BC020E030E040E853E4AD
S1130230C301B2010E942606181674F420E030E0CF
S113024040E854E4C301B2010E94FD04882334F45D
S113025085E0888780E003C082E001C082E0ED2D64
S1130260F0E020819885922B9083E881F0E0208152
S11302703A81932F9270990F990F922B30FBAA24F5
S1130280A0F8B12C0024B694A7940794B694A7942C
S11302900794BA2CA02CA92AA082E881F0E040811E
S11302A0998150E1959F90011124242B208393E59B
S11302B0D91202C00CBF04C025E4D21201C003BD90
S11302C0DF91CF911F910F91FF90EF90DF90CF902E
S11302D0BF90AF909F907F906F905F904F900895E4
S11302E0CF92EF92FF920F931F93CE2C7801890146
S11302F0242F462FFC0160810E9449001F910F9119
S1130300FF90EF90CF900895CF92DF92EF920F93EA
S1130310FC01F894608381E0868341832283E48234
S11303200383C582213019F5BC9ABF9ABD9ABE9841
S1130330E62FF0E090818E2D880F880F8061242FA6
S11303402370822B892B8083208130E2C39EC001DD
S11303501124806490E8099F600111248C29822B68
S11303608083818146954695482B41830FC0BC9874
S1130370BF98BD98BE9AE62FF0E0908180E8089F70
S113038090011124822F8064892B8083013009F429
S1130390789480E00F91EF90DF90CF90089525E05E
S11303A02A95F1F70000DC01EC91F0E0DB012C91DF
S11303B02283FC01A081B0E0FD0131968081882375
S11303C0ECF712968C91DA018C9380E00895CF9229
S11303D0EF920F93FC01E1100CC0F894613011F41A
S11303E0559A07C0623011F4579A03C08AB1806AE3
S11303F08AB9038381E08583E48261832283408315
S11304009AB1802F8470880F880F892B660F660F2E
S1130410660F682B6AB9440F440F440F8C2D806813
S1130420C42EC82A80E1289F900111242C2903702E
S1130430000F202B20BD8091600089B9809161005C
S11304408F7780BDE11001C0789485E10F91EF9022
S1130450CF900895709369006093680085E10895D2
S11304601F920F920FB60F9211242F933F934F9325
S11304705F936F937F938F939F93AF93BF93EF9308
S1130480FF93E0916800F0916900309709F00995B5
S1130490FF91EF91BF91AF919F918F917F916F9158
S11304A05F914F913F912F910F900FBE0F901F902E
S11304B018958CB180936C0080916C008BBB08956F
S11304C0CF92EF92FF920F931F93D09AD19ACC249C
S11304D0C394E12C03E020E040E062E08FE990E087
S11304E00E94E70169E572E08FE990E00E942A0228
S11304F0C12C00E021E040E06DE288E990E00E9438
S11305008401BB9AC39ACC24C39412E3E12EF12C48
S113051000E010E023E043E063E58EE890E00E9411
S113052049001F910F91FF90EF90CF900895809113
S11305306C008E34E1F480916C008F34C1F0D89A51
S11305402FE78AE196E0215080409040E1F700C017
S11305500000D8982FE78AE196E02150804090402F
S1130560E1F700C0000080916C008F3441F7D89807
S113057008950E94600278940F2EF0E5FF2EF02D6E
S1130580C0E0D0E00E949702FE01EC59FF4FE080EA
S113059002E310E020E030E043E063E08EE890E026
S11305A00E9470010E949702F0926B004AE650E0AC
S11305B06BE670E088E990E00E94CF010E94970208
S11305C02FEF84E39CE0215080409040E1F700C08D
S11305D000002196C330D105A9F60E949702FE01BE
S11305E0EC59FF4FE08002E310E020E030E043E00C
S11305F063E08EE890E00E9470010E949702F092FE
S11306006B004AE650E06BE670E088E990E00E94F7
S1130610CF010E9497022FEF84E39CE02150804099
S11306209040E1F700C000002197B9F6A9CFCF931D
S1130630DF939C01FB01DC011196CD91DC911297B3
S1130640D383C2838C819D81958384838C819D8196
S1130650DC0113967C936E9312977D836C833187B0
S11306602087F90180818F5F8083DF91CF91089586
S1130670CF93DF93FC01A085B185C281D3818481AE
S113068095819D838C83C481D581828193819B8351
S11306908A8311968D919C911297E817F90731F48A
S11306A08481958112969C938E931197118610865E
S11306B08C9181508C93DF91CF9108950F920FB656
S11306C0F8940F921F9211242F923F924F925F92AF
S11306D06F927F928F929F92AF92BF92CF92DF924E
S11306E0EF92FF920F931F932F933F934F935F9338
S11306F06F937F938F939F93AF93BF93CF93DF9326
S1130700EF93FF93A0918C00B0918D000DB60D92E4
S11307100EB60D920E94DC0381110E949704A091F1
S11307208C00B0918D00CD91CDBFDD91DEBFFF91E6
S1130730EF91DF91CF91BF91AF919F918F917F9175
S11307406F915F914F913F912F911F910F91FF9066
S1130750EF90DF90CF90BF90AF909F908F907F905D
S11307606F905F904F903F902F901F900F900FBE0F
S11307700F9008950E945E031895E0917800F0911F
S113078079008081811107C08FEF9FEF90936F00F4
S113079080936E000895E0917800F09179000580CF
S11307A0F681E02D0680F781E02D8281938190937C
S11307B06F0080936E000895CF92DF92EF92FF92C4
S11307C00F931F93CF93DF9380916D00811199C094
S11307D0E0907400F09075008FEFE81AF80AF09238
S11307E07500E0927400E114F104B9F4809178008A
S11307F090917900209176003091770030937900C0
S11308002093780090937700809376008091700015
S11308108F5F809370000E94BD0380916E00909161
S11308206F00E816F90610F4D12C53C0D12CCC2457
S1130830C394E0917800F09179008081811107C020
S11308408FEF9FEF90936F0080936E0042C0E09112
S11308507800F09179000580F681E02DC681D7817A
S11308608A819B81E816F90628F490936F0080939F
S11308706E002FC08E010E5F1F4FC8010E94380307
S11308808C899D89892B21F0CE010C960E94380316
S11308908E8990917300981710F48093730090E000
S11308A09C01220F331F220F331F220F331F820F8D
S11308B0931FB80186589F4F0E941703E0918C0044
S11308C0F0918D009E898689981708F4B2CFDC2CAC
S11308D0B0CFE0918C00F0918D00868990E0FC010E
S11308E0EE0FFF1FEE0FFF1FEE0FFF1F8E0F9F1F58
S11308F0FC01E658FF4F8081823048F0DD24D39418
S113090006C0809172008F5F80937200D12C809119
S11309107100882311F0DD24D3948D2DDF91CF91C4
S11309201F910F91FF90EF90DF90CF9008958091E9
S11309306D00882321F081E0809371000895109266
S1130940710020917300822F90E0FC01EE0FFF1FD5
S1130950EE0FFF1FEE0FFF1FE80FF91FE658FF4FC2
S11309603081311111C02150822F90E0FC01EE0F33
S1130970FF1FEE0FFF1FEE0FFF1FE80FF91FE658D2
S1130980FF4F3081332379F3AC01440F551F440FDB
S1130990551F440F551F480F591FDA01A658BF4F62
S11309A01196ED91FC9112970280F381E02D12963D
S11309B0FC93EE93119743585F4FE417F50729F41E
S11309C042815381FD0152834183FC01EE0FFF1FDD
S11309D0EE0FFF1FEE0FFF1F8E0F9F1FFC01E65847
S11309E0FF4F0180F281E02D8681978190938D00E5
S11309F080938C002093730008950E94B10508F43D
S1130A0081E008950E9416050C94EC050E94E5050A
S1130A1058F00E94DE0540F029F45F3F29F00C9461
S1130A20D50551110C9420060C94DB050E94FD059C
S1130A3068F39923B1F3552391F3951B550BBB2709
S1130A40AA2762177307840738F09F5F5F4F220F4E
S1130A50331F441FAA1FA9F335D00E2E3AF0E0E845
S1130A6032D091505040E695001CCAF72BD0FE2F8F
S1130A7029D0660F771F881FBB1F26173707480723
S1130A80AB07B0E809F0BB0B802DBF01FF279358DB
S1130A905F4F3AF09E3F510578F00C94D5050C94C5
S1130AA020065F3FE4F3983ED4F3869577956795E7
S1130AB0B795F7959F5FC9F7880F911D9695879510
S1130AC097F90895E1E0660F771F881FBB1F62172F
S1130AD073078407BA0720F0621B730B840BBA0BED
S1130AE0EE1F88F7E0950895E89409C097FB3EF45B
S1130AF090958095709561957F4F8F4F9F4F992367
S1130B00A9F0F92F96E9BB279395F69587957795E4
S1130B106795B795F111F8CFFAF4BB0F11F460FFA4
S1130B201BC06F5F7F4F8F4F9F4F16C0882311F0FC
S1130B3096E911C0772321F09EE8872F762F05C010
S1130B40662371F096E8862F70E060E02AF09A95AB
S1130B50660F771F881FDAF7880F9695879597F9A0
S1130B600895990F0008550FAA0BE0E8FEEF16163A
S1130B701706E807F907C0F012161306E407F5078D
S1130B8098F0621B730B840B950B39F40A2661F001
S1130B90232B242B252B21F408950A2609F4A140A4
S1130BA0A6958FEF811D811D089597F99F6780E8B1
S1130BB070E060E008959FEF80EC089500240A94AB
S1130BC01616170618060906089500240A94121624
S1130BD01306140605060895092E0394000C11F457
S1130BE0882352F0BB0F40F4BF2B11F460FF04C004
S1130BF06F5F7F4F8F4F9F4F089557FD9058440F5D
S1130C00551F59F05F3F71F04795880F97FB991F67
S1130C1061F09F3F79F08795089512161306140624
S1130C20551FF2CF4695F1DF08C0161617061806B1
S1130C30991FF1CF86957105610508940895E8948C
S1130C40BB2766277727CB0197F908950E94B10542
S1130C5008F48FEF08950E943E060C94EC050E9460
S1130C60DE0538F00E94E50520F0952311F00C9480
S1130C70D5050C94DB0511240C9420060E94FD0577
S1130C8070F3959FC1F3950F50E0551F629FF001DB
S1130C90729FBB27F00DB11D639FAA27F00DB11DF4
S1130CA0AA1F649F6627B00DA11D661F829F22277D
S1130CB0B00DA11D621F739FB00DA11D621F839F04
S1130CC0A00D611D221F749F3327A00D611D231FDA
S1130CD0849F600D211D822F762F6A2F11249F5728
S1130CE050409AF0F1F088234AF0EE0FFF1FBB1F2B
S1130CF0661F771F881F91505040A9F79E3F5105EA
S1130D0080F00C94D5050C9420065F3FE4F3983EE4
S1130D10D4F3869577956795B795F795E7959F5F93
S1130D20C1F7FE2B880F911D9695879597F9089525
S1130D3097FB072E16F4009407D077FD09D00E9484
S1130D40AC0607FC05D03EF4909581959F4F08951D
S1130D50709561957F4F0895AA1BBB1B51E107C095
S1130D60AA1FBB1FA617B70710F0A61BB70B881F37
S1130D70991F5A95A9F780959095BC01CD010895C6
S1070D80F894FFCF11
S10B0D8433000000020406081C
S9030000FC
