S0110000534552564F5F4543552E7372656348
S11300000C942A000C9447000C9447000C9447006D
S11300100C9447000C9447000C9447000C94ED0496
S11300200C9447000C9447000C9447000C94470030
S11300300C9435020C9423040C94F9020C9447009C
S11300400C9447000C9447000C9447000C94470010
S11300500C94470011241FBECFE5D8E0DEBFCDBF0E
S113006010E0A0E6B0E0E4E5F0E102C005900D92F6
S1130070A238B107D9F720E0A2E8B0E001C01D9290
S1130080A63DB207E1F70E94B2030C9428080C9431
S113009000004F925F926F927F92AF92BF92CF9285
S11300A0EF92FF920F931F93CF93DF93FC0163357D
S11300B029F06F3419F0653409F0E9C0E114F10452
S11300C00105110509F4E5C0309709F4E4C08EEF89
S11300D0840F823008F0E1C027013801142FF62E76
S11300E0EF01233009F4FDC0213009F4D8C081E0C8
S11300F01BC19C2D80E064E670E00E94CB078B015D
S11301000150110921C09C2D80E064E670E00E943A
S1130110CB070FEF10E0061B170B16C02FEFC29E84
S1130120C001112464E670E00E94CB078B010CC06F
S11301305FEFC59EC001112464E670E00E94CB0706
S11301400FEF10E0061B170B20E030E040E85FE300
S1130150C301B2010E943006882324F481E0888719
S113016080E063C020E030E040E85FE3C301B20117
S11301700E945907181674F420E030E040E051E47E
S1130180C301B2010E943006882324F482E08887E8
S113019080E04BC020E030E040E051E4C301B20114
S11301A00E945907181674F420E030E040E852E445
S11301B0C301B2010E943006882324F483E08887B7
S11301C080E033C020E030E040E852E4C301B201F3
S11301D00E945907181674F420E030E040E853E414
S11301E0C301B2010E943006882324F484E0888786
S11301F080E01BC020E030E040E853E4C301B201DA
S11302000E945907181674F420E030E040E854E4E2
S1130210C301B2010E943006882334F485E0888744
S113022080E003C082E001C082E0EF2DF0E0208195
S11302309885922B9083E881F0E020813A81932F76
S11302409270990F990F922B30FBAA24A0F8B12C2D
S11302500024B694A7940794B694A7940794BA2C50
S1130260A02CA92AA082E881F0E04081998150E184
S1130270959F90011124242B208393E5F91202C049
S11302800CBF52C025E4F2124FC003BD4DC081E043
S11302904BC081E049C081E047C081E045C068832C
S11302A0C7824382548265827682498381E0828355
S11302B08187C301B2010E94A70620E030E04FEF1E
S11302C053E40E945E079B01AC0160E074E284EF9A
S11302D09AE40E9435062B013C01123009F028CF24
S11302E01DCF6883C78243825482658276824983A4
S11302F083E0828381E08187C301B2010E94A70663
S113030020E030E040E853E40E945E079B01AC012A
S113031060E074E284EF9AE40E9435062B013C010C
S1130320123009F0F0CEE5CEDF91CF911F910F91FD
S1130330FF90EF90CF90BF90AF907F906F905F90C1
S11303404F900895CF92EF92FF920F931F93011550
S1130350110521053105B9F00097B9F05EEF560F8C
S11303605230A8F4542F5D7F513099F4FC0151852B
S1130370513089F4CE2C78018901242F462F6081D5
S11303800E94490009C081E007C081E005C081E006
S113039003C081E001C083E01F910F91FF90EF90B3
S11303A0CF900895CF92DF92EF920F93FC01F894CF
S11303B0608381E0868341832283E4820383C58250
S11303C0213019F5BC9ABF9ABD9ABE98E62FF0E089
S11303D090818E2D880F880F8061242F2370822BAB
S11303E0892B8083208130E2C39EC0011124806464
S11303F090E8099F600111248C29822B80838181DC
S113040046954695482B41830FC0BC98BF98BD982C
S1130410BE9AE62FF0E0908180E8089F90011124B5
S1130420822F8064892B8083013009F4789480E0E2
S11304300F91EF90DF90CF90089525E02A95F1F782
S11304400000DC01EC91F0E0DB012C912283FC0143
S1130450A081B0E0FD01319680818823ECF71296EB
S11304608C91DA018C9380E008951F920F920FB65D
S11304700F9211242F933F934F935F936F937F9326
S11304808F939F93AF93BF93EF93FF93E091820079
S1130490F0918300309709F00995FF91EF91BF9196
S11304A0AF919F918F917F916F915F914F913F9108
S11304B02F910F900FBE0F901F901895CF92EF922F
S11304C00F93009709F44BC03FEF360F333008F019
S11304D048C0423008F047C0243008F046C0083015
S11304E008F045C031E03E1508F443C0E1100CC0EB
S11304F0F894613011F4559A07C0623011F4579A98
S113050003C03AB1306A3AB9FC01038331E0358360
S1130510E4826183228340839AB1802F8470880FA0
S1130520880F892B660F660F660F682B6AB90370F4
S1130530000F8C2D8068082BF0E12F9FC00111243F
S1130540802B440F440F440F482B40BD8091600022
S113055089B9809161008F7780BD85E10BC086E108
S113056009C086E107C086E105C086E103C086E1D3
S113057001C086E1E11001C078940F91EF90CF9013
S11305800895009771F06115710569F0FC0185818A
S1130590813059F45D9BFECFFB0180818CB985E1EC
S11305A0089586E1089586E1089580E0089500970E
S11305B0C1F061157105B9F0FC0185818130A9F4A0
S11305C0FB018081882399F090E05D9BFECF8CB97C
S11305D09F5FFB01E90FF11D80818111F6CF85E159
S11305E0089586E1089586E1089580E0089585E1FF
S11305F008951F920F920FB60F9211242F933F93D9
S11306004F935F936F937F938F939F93AF93BF9316
S1130610EF93FF93E0918400F0918500309709F007
S11306200995FF91EF91BF91AF919F918F917F9128
S11306306F915F914F913F912F910F900FBE0F904B
S11306401F901895CF92EF92FF920F931F938FEF05
S113065084BB8ABBCC24C39412E3E12EF12C00E0CA
S113066010E023E043E063E58AEA90E00E94490059
S1130670E12C03E020E040E063E08BEB90E00E949B
S11306805E02C12C00E021E040E06DE284EB90E0EA
S11306900E94D2011F910F91FF90EF90CF90089587
S11306A085B38F5F85BB809188008E34E1F480919F
S11306B088008F34C1F0D89A2FE78AE196E0215060
S11306C080409040E1F700C00000D8982FE78AE10D
S11306D096E0215080409040E1F700C000008091F6
S11306E088008F3441F708950F931F93CF93DF93BE
S11306F01F92CDB7DEB7082F162F8AE0898367E6ED
S113070070E08BEB90E00E94D7024AE066EC70E068
S1130710802F90E00E94F30766EC70E08BEB90E092
S11307200E94D7026CE670E08BEB90E00E94D70247
S11307304AE066EC70E0812F90E00E94F30766ECDB
S113074070E08BEB90E00E94D702BE016F5F7F4F99
S11307508BEB90E00E94C1020F90DF91CF911F912B
S11307600F9108950E9422030F2EF0E5FF2EF02D25
S1130770C0E0D0E00E945003CE018C599F4F6C0121
S1130780FC01E08002E310E020E030E043E063E0BD
S11307908AEA90E00E94A2010E945003F09287002E
S11307A046E850E067E870E084EB90E00E941D02A8
S11307B00E945003F60160818C2F0E947403FFEFA6
S11307C029E688E1F15020408040E1F700C00000B4
S11307D02196C230D10571F60E945003FE01EC59F6
S11307E0FF4F6F01E08002E310E020E030E043E0DF
S11307F063E08AEA90E00E94A2010E945003F09212
S1130800870046E850E067E870E084EB90E00E94DF
S11308101D020E945003F60160818C2F0E94740314
S1130820FFEF29E688E1F15020408040E1F700C065
S11308300000219789F69CCF8BB380958BBB8CB13C
S11308408093880008951F920F920FB60F9211247F
S11308502F933F934F935F936F937F938F939F93C4
S1130860AF93BF93EF93FF9385B3809585BB0E94AD
S11308701C04FF91EF91BF91AF919F918F917F9154
S11308806F915F914F913F912F910F900FBE0F90F9
S11308901F901895CF93DF939C01FB01DC01119607
S11308A0CD91DC911297D383C2838C819D819583F2
S11308B084838C819D81DC0113967C936E931297C3
S11308C07D836C8331872087F90180818F5F8083EA
S11308D0DF91CF910895CF93DF93FC01A085B1857B
S11308E0C281D381848195819D838C83C481D58188
S11308F0828193819B838A8311968D919C91129717
S1130900E817F90731F48481958112969C938E93AC
S11309101197118610868C9181508C93DF91CF9121
S113092008950F920FB6F8940F921F9211242F92EC
S11309303F924F925F926F927F928F929F92AF926B
S1130940BF92CF92DF92EF92FF920F931F932F9358
S11309503F934F935F936F937F938F939F93AF9343
S1130960BF93CF93DF93EF93FF93A091A800B0912F
S1130970A9000DB60D920EB60D920E940F058111BD
S11309800E94CA05A091A800B091A900CD91CDBF45
S1130990DD91DEBFFF91EF91DF91CF91BF91AF91D8
S11309A09F918F917F916F915F914F913F912F9183
S11309B01F910F91FF90EF90DF90CF90BF90AF9079
S11309C09F908F907F906F905F904F903F902F906B
S11309D01F900F900FBE0F9008950E9491041895D8
S11309E0E0919400F09195008081811107C08FEF10
S11309F09FEF90938B0080938A000895E091940078
S1130A00F09195000580F681E02D0680F781E02DB8
S1130A108281938190938B0080938A000895CF9272
S1130A20DF92EF92FF920F931F93CF93DF93809106
S1130A308900811199C0E0909000F09091008FEFAF
S1130A40E81AF80AF0929100E0929000E114F1049F
S1130A50B9F4809194009091950020919200309186
S1130A609300309395002093940090939300809387
S1130A70920080918C008F5F80938C000E94F00420
S1130A8080918A0090918B00E816F90610F4D12C1D
S1130A9053C0D12CCC24C394E0919400F0919500E0
S1130AA08081811107C08FEF9FEF90938B0080931B
S1130AB08A0042C0E0919400F09195000580F6818F
S1130AC0E02DC681D7818A819B81E816F90628F436
S1130AD090938B0080938A002FC08E010E5F1F4F6E
S1130AE0C8010E946B048C899D89892B21F0CE0159
S1130AF00C960E946B048E8990918F00981710F4C5
S1130B0080938F0090E09C01220F331F220F331F2C
S1130B10220F331F820F931FB8018A569F4F0E94E2
S1130B204A04E091A800F091A9009E89868998174B
S1130B3008F4B2CFDC2CB0CFE091A800F091A9006A
S1130B40868990E0FC01EE0FFF1FEE0FFF1FEE0FF2
S1130B50FF1F8E0F9F1FFC01EA56FF4F80818230DA
S1130B6048F0DD24D39406C080918E008F5F80937B
S1130B708E00D12C80918D00882311F0DD24D39434
S1130B808D2DDF91CF911F910F91FF90EF90DF900A
S1130B90CF90089580918900882321F081E080938B
S1130BA08D00089510928D0020918F00822F90E087
S1130BB0FC01EE0FFF1FEE0FFF1FEE0FFF1FE80FEC
S1130BC0F91FEA56FF4F3081311111C02150822F95
S1130BD090E0FC01EE0FFF1FEE0FFF1FEE0FFF1F53
S1130BE0E80FF91FEA56FF4F3081332379F3AC0144
S1130BF0440F551F440F551F440F551F480F591FCD
S1130C00DA01AA56BF4F1196ED91FC91129702801A
S1130C10F381E02D1296FC93EE93119747565F4FA4
S1130C20E417F50729F442815381FD01528341837E
S1130C30FC01EE0FFF1FEE0FFF1FEE0FFF1F8E0FC5
S1130C409F1FFC01EA56FF4F0180F281E02D86814F
S1130C5097819093A9008093A80020938F00089512
S1130C600E94E40608F481E008950E9449060C9469
S1130C701F070E94180758F00E94110740F029F43A
S1130C805F3F29F00C94080751110C9453070C94FE
S1130C900E070E94300768F39923B1F3552391F3AB
S1130CA0951B550BBB27AA2762177307840738F0D7
S1130CB09F5F5F4F220F331F441FAA1FA9F335D034
S1130CC00E2E3AF0E0E832D091505040E695001CE8
S1130CD0CAF72BD0FE2F29D0660F771F881FBB1FA2
S1130CE0261737074807AB07B0E809F0BB0B802D80
S1130CF0BF01FF2793585F4F3AF09E3F510578F0AC
S1130D000C9408070C9453075F3FE4F3983ED4F324
S1130D10869577956795B795F7959F5FC9F7880F7F
S1130D20911D9695879597F90895E1E0660F771FD1
S1130D30881FBB1F621773078407BA0720F0621B62
S1130D40730B840BBA0BEE1F88F7E0950895E894B3
S1130D5009C097FB3EF490958095709561957F4FFF
S1130D608F4F9F4F9923A9F0F92F96E9BB279395AD
S1130D70F695879577956795B795F111F8CFFAF4BD
S1130D80BB0F11F460FF1BC06F5F7F4F8F4F9F4FEE
S1130D9016C0882311F096E911C0772321F09EE84C
S1130DA0872F762F05C0662371F096E8862F70E0B2
S1130DB060E02AF09A95660F771F881FDAF7880F8C
S1130DC09695879597F90895990F0008550FAA0BE2
S1130DD0E0E8FEEF16161706E807F907C0F012164A
S1130DE01306E407F50798F0621B730B840B950B4D
S1130DF039F40A2661F0232B242B252B21F40895A2
S1130E000A2609F4A140A6958FEF811D811D08953E
S1130E1097F99F6780E870E060E008959FEF80ECA9
S1130E20089500240A94161617061806090608954C
S1130E3000240A9412161306140605060895092EB2
S1130E400394000C11F4882352F0BB0F40F4BF2B21
S1130E5011F460FF04C06F5F7F4F8F4F9F4F089561
S1130E6057FD9058440F551F59F05F3F71F0479557
S1130E70880F97FB991F61F09F3F79F0879508953C
S1130E80121613061406551FF2CF4695F1DF08C05B
S1130E90161617061806991FF1CF86957105610578
S1130EA008940895E894BB2766277727CB0197F920
S1130EB008950E94E40608F48FEF08950E947107D4
S1130EC00C941F070E94110738F00E94180720F0A5
S1130ED0952311F00C9408070C940E0711240C941C
S1130EE053070E94300770F3959FC1F3950F50E0AC
S1130EF0551F629FF001729FBB27F00DB11D639FC8
S1130F00AA27F00DB11DAA1F649F6627B00DA11D6D
S1130F10661F829F2227B00DA11D621F739FB00D13
S1130F20A11D621F839FA00D611D221F749F332783
S1130F30A00D611D231F849F600D211D822F762F1C
S1130F406A2F11249F5750409AF0F1F088234AF0F9
S1130F50EE0FFF1FBB1F661F771F881F9150504065
S1130F60A9F79E3F510580F00C9408070C94530791
S1130F705F3FE4F3983ED4F3869577956795B795EC
S1130F80F795E7959F5FC1F7FE2B880F911D969506
S1130F90879597F9089597FB072E16F4009407D0C8
S1130FA077FD09D00E94DF0707FC05D03EF4909539
S1130FB081959F4F0895709561957F4F0895AA1B61
S1130FC0BB1B51E107C0AA1FBB1FA617B70710F030
S1130FD0A61BB70B881F991F5A95A9F78095909562
S1130FE0BC01CD010895BB274A3031F4992322F482
S1130FF0BDE2909581959F4F0C94FF07BB27FB01A1
S11310005527AA27880F991FAA1FA41710F0A41BFD
S113101083955051B9F7A05DAA3308F0A95DA19357
S1131020009779F7B111B1931192CB010C94180880
S1131030DC01FC01672F71917723E1F7329704C03B
S11310407C916D9370836291AE17BF07C8F30895C6
S1071050F894FFCF3E
S11310543300000003060869203D2000202067694E
S113106476657320616E20616E676C65206F6620FF
S1051074000076
S9030000FC
