S0110000534552564F5F4543552E7372656348
S11300000C942A000C94EE030C9430040C944700D6
S11300100C9447000C9447000C9447000C9415056D
S11300200C9447000C9447000C9447000C94470030
S11300300C9447000C94C4020C9447000C944700A1
S11300400C9447000C9447000C9447000C94470010
S11300500C94470011241FBECFE5D8E0DEBFCDBF0E
S113006011E0A0E6B0E0E6E8F1E102C005900D92EF
S1130070A03BB107D9F722E0A0EBB1E001C01D928B
S1130080A630B207E1F70E94ED020C94C1080C946B
S113009000008091B001811106C08FB780688FBFC6
S11300A081E08093B00180E008959091B001913097
S11300B009F04EC09BEF980F933008F04BC06430AA
S11300C008F04AC09BB721E030E0082E02C0220F9E
S11300D0331F0A94E2F7292B2BBF8630C1F4613019
S11300E029F485B7816085BF80E00895623029F4E2
S11300F085B7826085BF80E00895633029F485B7B1
S1130100836085BF80E00895929A80E008958730E7
S1130110C1F4613029F485B7846085BF80E0089517
S1130120623029F485B7886085BF80E00895633024
S113013029F485B78C6085BF80E00895939A80E0A8
S11301400895623059F484B78F7B84BF80E00895AA
S113015082E0089581E0089581E0089583E00895A0
S11301604F925F926F927F929F92AF92BF92CF9283
S1130170DF92EF92FF920F931F93CF93DF93EC01E3
S1130180D62E942EC801B701D882CF82EB82FC828E
S11301900D831E8349832A8331E03987233051F547
S11301A00E94750720E030E040E853E40E942C08E8
S11301B09B01AC0160E074E284EF9AE40E940307BF
S11301C02B013C0122E092120AC09C2D80E064E6DF
S11301D070E00E9499088B010150110936C09C2DD2
S11301E080E064E670E00E9499080FEF10E0061BBF
S11301F0170B2BC00E94750720E030E04FEF53E44B
S11302000E942C089B01AC0160E074E284EF9AE444
S11302100E9403072B013C0152E095120AC02FEF04
S1130220C29EC001112464E670E00E9499088B010B
S11302300CC05FEFC59EC001112464E670E00E940B
S113024099080FEF10E0061B170B20E030E040E8A0
S11302505FE3C301B2010E94FE06882324F481E017
S1130260888780E063C020E030E040E85FE3C301BA
S1130270B2010E942708181674F420E030E040E030
S113028051E4C301B2010E94FE06882324F482E0F3
S1130290888780E04BC020E030E040E051E4C301B7
S11302A0B2010E942708181674F420E030E040E8F8
S11302B052E4C301B2010E94FE06882324F483E0C1
S11302C0888780E033C020E030E040E852E4C30196
S11302D0B2010E942708181674F420E030E040E8C8
S11302E053E4C301B2010E94FE06882324F484E08F
S11302F0888780E01BC020E030E040E853E4C3017D
S1130300B2010E942708181674F420E030E040E897
S113031054E4C301B2010E94FE06882334F485E04C
S1130320888780E003C082E001C082E0ED2DF0E028
S113033020819885922B9083E881F0E020813A8196
S1130340932F9270990F990F922B30FBAA24A0F847
S1130350B12C0024B694A7940794B694A794079458
S1130360BA2CA02CA92AA082E881F0E040819981CE
S113037050E1959F90011124242B208393E5D912F9
S113038002C00CBF04C025E4D21201C003BDDF913A
S1130390CF911F910F91FF90EF90DF90CF90BF907E
S11303A0AF909F907F906F905F904F900895CF9201
S11303B0EF92FF920F931F93CE2C78018901242F83
S11303C0462FFC0160810E94B0001F910F91FF90A5
S11303D0EF90CF900895CF92DF92EF920F93FC01AC
S11303E0F894608381E0868341832283E4820383DB
S11303F0C582213019F5BC9ABF9ABD9ABE98E62FE2
S1130400F0E090818E2D880F880F8061242F237057
S1130410822B892B8083208130E2C39EC00111246A
S1130420806490E8099F600111248C29822B8083C9
S1130430818146954695482B41830FC0BC98BF984F
S1130440BD98BE9AE62FF0E0908180E8089F900165
S11304501124822F8064892B8083013009F47894DD
S113046080E00F91EF90DF90CF90089525E02A95DA
S1130470F1F70000DC01EC91F0E0DB012C91228328
S1130480FC01A081B0E0FD01319680818823ECF766
S113049012968C91DA018C9380E00895CF92EF92BA
S11304A00F93FC01E1100CC0F894613011F4559ADB
S11304B007C0623011F4579A03C08AB1806A8AB9BE
S11304C0038381E08583E4826183228340839AB13C
S11304D0802F8470880F880F892B660F660F660F34
S11304E0682B6AB9440F440F440F8C2D8068C42EC6
S11304F0C82A80E1289F900111242C290370000F41
S1130500202B20BD8091600089B9809161008F7794
S113051080BDE11001C0789485E10F91EF90CF90F8
S113052008955F9BFECF8CB1FB0180835F9A85E1C8
S11305300895CF93DF931F92CDB7DEB71982198246
S11305408981FB01E80FF11D8081882391F05D9B77
S1130550FECF8981FB01E80FF11D80818CB989816F
S11305608F5F89838981FB01E80FF11D80818111EF
S1130570EECF85E10F90DF91CF9108957093B20192
S11305806093B10185E108951F920F920FB60F9207
S113059011242F933F934F935F936F937F938F9384
S11305A09F93AF93BF93EF93FF93E091B101F091C9
S11305B0B201309709F00995FF91EF91BF91AF9186
S11305C09F918F917F916F915F914F913F912F9167
S11305D00F900FBE0F901F9018950E945C060F2E6F
S11305E0F8E7CF2EF02D6894DD24D6F86894FF2424
S11305F0F5F8D0E1CAE760916C0070916D008AEE65
S113060091E00E94990263EB71E08AEE91E00E940E
S113061091028091B3018A37B1F5609166007091BF
S113062067008AEE91E00E949902C093B60126C049
S11306301092F5018091F5018A30E0F48EE50E9474
S1130640AB06E091F501F0E0E259FF4FE08002E3F0
S113065010E020E030E043E063E089ED91E00E94A7
S1130660D7018091F5018F5F8093F5018091F501A9
S11306708A3020F38CB1833609F4BDCF8091B30165
S11306808336B1F6B8CF8091B301883709F098C0AA
S113069060916800709169008AEE91E00E9499026D
S11306A0C092B60185C063EB71E08AEE91E00E94CE
S11306B091028091B301863791F40F2EF3E0EF2E6F
S11306C0F02D02E310E020E030E043E063E089ED48
S11306D091E00E94D70186E90E94AB0669C080912F
S11306E0B301823691F40F2EF3E0EF2EF02D02E3E6
S11306F010E020E030E043E063E089ED91E00E9407
S1130700D70186E90E94BC0653C08091B3018D369F
S113071091F40F2EF7E0EF2EF02D02E310E020E02D
S113072030E043E063E089ED91E00E94D70186E97F
S11307300E94CD063DC08091B3018E3691F40F2EF8
S1130740F7E0EF2EF02D02E310E020E030E043E08C
S113075063E089ED91E00E94D70186E90E94DE06FC
S113076027C08091B301893621F482B38D2782BBDF
S11307701FC08091B301803721F48BB38D278BBBCD
S113078017C08091B301853721F48BB38F258BBBC0
S11307900FC08091B3018F3621F48BB38D258BBBB1
S11307A007C08091B301893719F48BB380588BBB90
S11307B08091B301833609F076CF1092B6011BCF36
S11307C08091B3018A3009F416CF60916A00709168
S11307D06B008AEE91E00E9499020DCF1F920F9256
S11307E00FB60F9211242F933F934F935F936F9300
S11307F07F938F939F93AF93BF93EF93FF938AE07D
S11308000E94EF0660916400709165008AEE91E0A9
S11308100E94990244EB51E065EB71E083EE91E0B4
S11308200E94A6068091B401823521F48EE50E94CF
S1130830CD0603C08EE50E94DE061092B401FF913E
S1130840EF91BF91AF919F918F917F916F915F9144
S11308504F913F912F910F900FBE0F901F901895BD
S11308601F920F920FB60F9211242F933F934F9321
S11308705F936F937F938F939F93AF93BF93EF9304
S1130880FF938AE00E94EF06609164007091650016
S11308908AEE91E00E94990244EB51E065EB71E02D
S11308A083EE91E00E94A6068091B401823521F482
S11308B08EE50E94DE0603C08EE50E94CD061092EE
S11308C0B401FF91EF91BF91AF919F918F917F916F
S11308D06F915F914F913F912F910F900FBE0F90A9
S11308E01F901895CF93DF939C01FB01DC011196B7
S11308F0CD91DC911297D383C2838C819D819583A2
S113090084838C819D81DC0113967C936E93129772
S11309107D836C8331872087F90180818F5F808399
S1130920DF91CF910895CF93DF93FC01A085B1852A
S1130930C281D381848195819D838C83C481D58137
S1130940828193819B838A8311968D919C911297C6
S1130950E817F90731F48481958112969C938E935C
S11309601197118610868C9181508C93DF91CF91D1
S113097008950F920FB6F8940F921F9211242F929C
S11309803F924F925F926F927F928F929F92AF921B
S1130990BF92CF92DF92EF92FF920F931F932F9308
S11309A03F934F935F936F937F938F939F93AF93F3
S11309B0BF93CF93DF93EF93FF93A091D701B091AF
S11309C0D8010DB60D920EB60D920E943705811115
S11309D00E94F205A091D701B091D801CD91CDBF6D
S11309E0DD91DEBFFF91EF91DF91CF91BF91AF9188
S11309F09F918F917F916F915F914F913F912F9133
S1130A001F910F91FF90EF90DF90CF90BF90AF9028
S1130A109F908F907F906F905F904F903F902F901A
S1130A201F900F900FBE0F9008950E94B90418955F
S1130A30E091C301F091C4018081811107C08FEF5F
S1130A409FEF9093BA018093B9010895E091C30197
S1130A50F091C4010580F681E02D0680F781E02D38
S1130A60828193819093BA018093B9010895CF92C2
S1130A70DF92EF92FF920F931F93CF93DF938091B6
S1130A80B801811199C0E090BF01F090C0018FEFCF
S1130A90E81AF80AF092C001E092BF01E114F104EF
S1130AA0B9F48091C3019091C4012091C1013091A6
S1130AB0C2013093C4012093C3019093C201809377
S1130AC0C1018091BB018F5F8093BB010E94180517
S1130AD08091B9019091BA01E816F90610F4D12C6D
S1130AE053C0D12CCC24C394E091C301F091C40130
S1130AF08081811107C08FEF9FEF9093BA0180939B
S1130B00B90142C0E091C301F091C4010580F681AE
S1130B10E02DC681D7818A819B81E816F90628F4E5
S1130B209093BA018093B9012FC08E010E5F1F4FBD
S1130B30C8010E9493048C899D89892B21F0CE01E0
S1130B400C960E9493048E899091BE01981710F41C
S1130B508093BE0190E09C01220F331F220F331FAC
S1130B60220F331F820F931FB8018B539E4F0E9495
S1130B707204E091D701F091D8019E898689981773
S1130B8008F4B2CFDC2CB0CFE091D701F091D801BA
S1130B90868990E0FC01EE0FFF1FEE0FFF1FEE0FA2
S1130BA0FF1F8E0F9F1FFC01EB53FE4F808182308D
S1130BB048F0DD24D39406C08091BD018F5F8093FB
S1130BC0BD01D12C8091BC01882311F0DD24D39484
S1130BD08D2DDF91CF911F910F91FF90EF90DF90BA
S1130BE0CF9008958091B801882321F081E080930B
S1130BF0BC0108951092BC012091BE01822F90E0A7
S1130C00FC01EE0FFF1FEE0FFF1FEE0FFF1FE80F9B
S1130C10F91FEB53FE4F3081311111C02150822F47
S1130C2090E0FC01EE0FFF1FEE0FFF1FEE0FFF1F02
S1130C30E80FF91FEB53FE4F3081332379F3AC01F6
S1130C40440F551F440F551F440F551F480F591F7C
S1130C50DA01AB53BE4F1196ED91FC9112970280CD
S1130C60F381E02D1296FC93EE93119748535E4F57
S1130C70E417F50729F442815381FD01528341832E
S1130C80FC01EE0FFF1FEE0FFF1FEE0FFF1F8E0F75
S1130C909F1FFC01EB53FE4F0180F281E02D868102
S1130CA097819093D8018093D7012093BE01089532
S1130CB08CB18093B7010895CF92EF92FF920F9376
S1130CC01F9383E084BB85BB8FEF8ABB8A988B9884
S1130CD08C9AD09AD19AC12CE12C00E021E040E01A
S1130CE06DE283EE91E00E94EB01CC24C394EE24E8
S1130CF0E39403E020E040E063E08AEE91E00E94A8
S1130D004E0268E576E08AEE91E00E94BE02BB9A4C
S1130D10C39A12E3E12EF12C00E010E023E043E05B
S1130D2063E589ED91E00E94B00078940E94490047
S1130D3063E086E00E94550063E087E00E9455006E
S1130D401F910F91FF90EF90CF900895A8980E9463
S1130D503602A89A0895D89AD998DA9ADB98882303
S1130D6041F0EFECF7E03197F1F700C0000081505B
S1130D70C1F7D898DA980895D99AD898DB9ADA986E
S1130D80882341F0EFECF7E03197F1F700C0000061
S1130D908150C1F7D998DB980895D89AD998DB9AED
S1130DA0DA98882341F0EFECF7E03197F1F700C0CF
S1130DB000008150C1F7D898DB980895D99AD89843
S1130DC0DA9ADB98882341F0EFECF7E03197F1F7FA
S1130DD000C000008150C1F7D998DA980895D898D6
S1130DE0D998DB98DA98882341F0EFECF7E0319753
S1130DF0F1F700C000008150C1F708950E94B207C6
S1130E0008F481E008950E9417070C94ED070E94EE
S1130E10E60758F00E94DF0740F029F45F3F29F00D
S1130E200C94D60751110C9421080C94DC070E94F1
S1130E30FE0768F39923B1F3552391F3951B550BE2
S1130E40BB27AA2762177307840738F09F5F5F4F99
S1130E50220F331F441FAA1FA9F335D00E2E3AF0D8
S1130E60E0E832D091505040E695001CCAF72BD0F0
S1130E70FE2F29D0660F771F881FBB1F2617370741
S1130E804807AB07B0E809F0BB0B802DBF01FF2773
S1130E9093585F4F3AF09E3F510578F00C94D60773
S1130EA00C9421085F3FE4F3983ED4F3869577953C
S1130EB06795B795F7959F5FC9F7880F911D96952C
S1130EC0879597F90895E1E0660F771F881FBB1F88
S1130ED0621773078407BA0720F0621B730B840B35
S1130EE0BA0BEE1F88F7E0950895E89409C097FBC4
S1130EF03EF490958095709561957F4F8F4F9F4FED
S1130F009923A9F0F92F96E9BB279395F695879530
S1130F1077956795B795F111F8CFFAF4BB0F11F4F3
S1130F2060FF1BC06F5F7F4F8F4F9F4F16C088239A
S1130F3011F096E911C0772321F09EE8872F762FD0
S1130F4005C0662371F096E8862F70E060E02AF011
S1130F509A95660F771F881FDAF7880F96958795FD
S1130F6097F90895990F0008550FAA0BE0E8FEEFD2
S1130F7016161706E807F907C0F012161306E40759
S1130F80F50798F0621B730B840B950B39F40A2652
S1130F9061F0232B242B252B21F408950A2609F430
S1130FA0A140A6958FEF811D811D089597F99F6734
S1130FB080E870E060E008959FEF80EC08950024DD
S1130FC00A941616170618060906089500240A94AA
S1130FD012161306140605060895092E0394000C30
S1130FE011F4882352F0BB0F40F4BF2B11F460FFBF
S1130FF004C06F5F7F4F8F4F9F4F089557FD9058E8
S1131000440F551F59F05F3F71F04795880F97FBC8
S1131010991F61F09F3F79F0879508951216130682
S11310201406551FF2CF4695F1DF08C016161706B1
S11310301806991FF1CF86957105610508940895E6
S1131040E894BB2766277727CB0197F908950E9478
S1131050B20708F48FEF08950E943F080C94ED073F
S11310600E94DF0738F00E94E60720F0952311F074
S11310700C94D6070C94DC0711240C9421080E94CC
S1131080FE0770F3959FC1F3950F50E0551F629FC3
S1131090F001729FBB27F00DB11D639FAA27F00DCD
S11310A0B11DAA1F649F6627B00DA11D661F829FF4
S11310B02227B00DA11D621F739FB00DA11D621FD9
S11310C0839FA00D611D221F749F3327A00D611DF6
S11310D0231F849F600D211D822F762F6A2F1124D8
S11310E09F5750409AF0F1F088234AF0EE0FFF1F0B
S11310F0BB1F661F771F881F91505040A9F79E3F62
S1131100510580F00C94D6070C9421085F3FE4F35A
S1131110983ED4F3869577956795B795F795E795B7
S11311209F5FC1F7FE2B880F911D9695879597F9C0
S1131130089597FB072E16F4009407D077FD09D085
S11311400E94AD0807FC05D03EF4909581959F4F11
S11311500895709561957F4F0895AA1BBB1B51E1BB
S113116007C0AA1FBB1FA617B70710F0A61BB70B13
S1131170881F991F5A95A9F780959095BC01CD01B8
S10911800895F894FFCF6E
S11311863300000078009E00E60031015601020398
S1131196040506070605040343617574696F6E2C1E
S11311A620746865726520697320616E206F6273AE
S11311B67461636C652061686561642121006E6FEA
S11311C67720746865206175746F6D617469632036
S11311D66D6F6465206973206163746976652E207A
S11311E6796F75206D61792073746F70206D652039
S11311F677697468207468652052455345542062A3
S11312067574746F6E006E6F7720746865206D61F7
S11312166E75616C206D6F646520697320616374FB
S11312266976652E20796F75206D617920636F6EFE
S113123674726F6C20627920746865206B657970AE
S11312466164206F6E207468652073637265656ED1
S113125600736F7272792C207468697320636F6DE2
S11312666D616E642069736E2774206170706C6999
S11312766361626C65003D3E57656C636F6D652006
S1131286746F207468652073797374656D0A3D3EC6
S113129674776F206D6F64657320706F7373696202
S11312A66C653A2D0A3D3E4155544F28707265735C
S11312B673204175746F29094D616E75616C2870D0
S11312C672657373204D616E75616C290A3C3D002D
S9030000FC
